:100000000C9462000C948A000C948A000C948A0070
:100010000C948A000C948A000C948A000C948A0038
:100020000C948A000C948A000C948A000C948A0028
:100030000C948A000C948A000C948A000C948A0018
:100040000C94C4020C948A000C943C040C94830419
:100050000C948A000C948A000C948A000C948A00F8
:100060000C948A000C948A000000000024002700F1
:100070002A0000000000250028002B0000000000DE
:1000800023002600290004040404040404040202DA
:100090000202020203030303030301020408102007
:1000A0004080010204081020010204081020000012
:1000B0000007000201000003040600000000000029
:1000C0000000E90511241FBECFEFD8E0DEBFCDBF91
:1000D00011E0A0E0B1E0E8E3FDE002C005900D9280
:1000E000A231B107D9F711E0A2E1B1E001C01D9240
:1000F000A23DB107E1F710E0C4ECD0E004C02297C4
:10010000FE010E949606C23CD107C9F70E9439063B
:100110000C949A060C940000EF92FF920F931F9399
:1001200083EB91E040E051EE60E070E00E94BE049D
:100130008DE061E00E94550382E060E00E9455037B
:1001400083E060E00E94550384E060E00E94550374
:1001500084E00E94E8038C0183E00E94E8037C01B4
:1001600082E00E94E803000F111F0E0D1F1D000FFB
:10017000111F080F191F1093200100931F0185E024
:1001800060E00E94550386E060E00E94550387E02E
:1001900060E00E94550388E060E00E94550389E01A
:1001A00060E00E9455038AE060E00E9455038BE006
:1001B00060E00E9455038CE060E00E94550381E2FC
:1001C00091E060E070E00E94B102803871F081E25D
:1001D00091E060E070E040E80E94B80281E291E0C6
:1001E00061E070E041E00E94B80281E291E061E0EC
:1001F00070E00E94B102809300011F910F91FF9067
:10020000EF9008958F929F92AF92BF92CF92DF921C
:10021000EF92FF920F931F93CF93DF935C01EB015B
:100220006A0149010E940C037B018C010E940C03AE
:100230006E197F09800B910B663071058105910560
:1002400008F070C083EB91E00E944405892B71F3A4
:1002500083EB91E00E9475058E37910539F70E9476
:100260000C036E197F09800B910B663071058105B7
:10027000910508F057C083EB91E00E944405892B5B
:1002800071F383EB91E00E947505F50180838B305B
:10029000C0F40E940C036E197F09800B910B66302D
:1002A000710581059105F0F583EB91E00E9444050D
:1002B000892B79F383EB91E00E9475058883863062
:1002C00018F085E088832CC083EB91E00E94440500
:1002D000892BD1F383EB91E00E947505F6018083B1
:1002E000DD241AC00E940C036E197F09800B910B4C
:1002F0006630710581059105A8F483EB91E00E94B9
:100300004405892B49F083EB91E00E947505F401C7
:10031000ED0DF11D8083D394F5018081D81610F383
:1003200081E001C080E0DF91CF911F910F91FF909C
:10033000EF90DF90CF90BF90AF909F908F900895F7
:10034000CF92DF92FF920F931F93CF93DF93182FDB
:10035000062FF42E69018DE061E00E94940383EB87
:1003600091E06EE70E94B00583EB91E0612F0E945F
:10037000B00583EB91E0602F0E94B00583EB91E024
:100380006F2D0E94B005C0E0D0E0012F10E009C041
:10039000F601EC0FFD1F83EB91E060810E94B00538
:1003A0002196C017D107A4F38DE060E00E9494036A
:1003B000DF91CF911F910F91FF90DF90CF90089523
:1003C0004091140180910001481731F480E065E00C
:1003D00020E030E00E94A0010895CF92DF92EF92DA
:1003E000FF920F931F93DF93CF930F92CDB7DEB79A
:1003F00090911401809100019817B1F500E010E090
:1004000041E0C42ED12CE12CF12C802F8B5F0E9477
:10041000E8032981892B61F0D701C601002E04C0B1
:10042000880F991FAA1FBB1F0A94D2F7282B0CC054
:10043000D701C601002E04C0880F991FAA1FBB1F39
:100440000A94D2F78095282329830730110519F0E3
:100450000F5F1F4FDACF81E063E0409114019E01EE
:100460002F5F3F4F0E94A0010F90CF91DF911F910E
:100470000F91FF90EF90DF90CF900895509114016D
:10048000252F30E080911F01909120012817390716
:1004900001F540911501842F8150883098F481E254
:1004A00091E061E070E00E94B802809115018093B4
:1004B000000181E062E04091140125E131E00E94F9
:1004C000A001089580E065E0452F20E030E00E9423
:1004D000A0010895DF93CF9300D0CDB7DEB7409150
:1004E0001401242F30E080911F01909120012817E2
:1004F000390761F481E08983809100018A8382E079
:1005000061E09E012F5F3F4F0E94A0010F900F906E
:10051000CF91DF91089582E191E063E171E044E1E0
:1005200051E025E131E00E9402018823C9F0809169
:100530001301823069F0833018F4813079F405C0FA
:10054000833049F0853051F408950E946A0208957D
:100550000E943E0208950E94ED0108950E94E0016C
:100560000895F999FECF72BD61BDF89A80B50895DE
:10057000F999FECF1FBA72BD61BD40BD0FB6F894A8
:10058000FA9AF99A0FBE08951F920F920FB60F9222
:1005900011242F933F938F939F93AF93BF93809199
:1005A000260190912701A0912801B0912901309155
:1005B0002A010196A11DB11D232F2D5F2D3720F09B
:1005C0002D570196A11DB11D20932A01809326016C
:1005D00090932701A0932801B093290180912201D3
:1005E00090912301A0912401B09125010196A11DB4
:1005F000B11D8093220190932301A0932401B09315
:100600002501BF91AF919F918F913F912F910F90B5
:100610000FBE0F901F9018958FB7F8942091260168
:100620003091270140912801509129018FBFB901D4
:10063000CA010895789484B5826084BD84B58160D0
:1006400084BD85B5826085BD85B5816085BDEEE6DA
:10065000F0E0808181608083E1E8F0E010828081B9
:1006600082608083808181608083E0E8F0E0808127
:1006700081608083E1EBF0E0808184608083E0EB47
:10068000F0E0808181608083EAE7F0E0808184602F
:10069000808380818260808380818160808380818B
:1006A000806880831092C1000895CF93DF93482F14
:1006B00050E0CA0186569F4FFC0134914A575F4F64
:1006C000FA018491882369F190E0880F991FFC0159
:1006D000E859FF4FA591B491FC01EE58FF4FC59129
:1006E000D491662351F42FB7F8948C91932F909561
:1006F00089238C93888189230BC0623061F42FB7E2
:10070000F8948C91932F909589238C938881832BD7
:1007100088832FBF06C09FB7F8948C91832B8C934E
:100720009FBFDF91CF910895482F50E0CA018255B5
:100730009F4FFC012491CA0186569F4FFC01949162
:100740004A575F4FFA013491332309F440C0222302
:1007500051F1233071F0243028F42130A1F02230FF
:1007600011F514C02630B1F02730C1F02430D9F48F
:1007700004C0809180008F7703C0809180008F7DBE
:100780008093800010C084B58F7702C084B58F7DC0
:1007900084BD09C08091B0008F7703C08091B00004
:1007A0008F7D8093B000E32FF0E0EE0FFF1FEE5837
:1007B000FF4FA591B4912FB7F894662321F48C9143
:1007C0009095892302C08C91892B8C932FBF08951B
:1007D000682F70E0CB0182559F4FFC012491CB0123
:1007E00086569F4FFC0144916A577F4FFB019491BD
:1007F000992319F420E030E03CC0222351F123304A
:1008000071F0243028F42130A1F0223011F514C009
:100810002630B1F02730C1F02430D9F404C08091E3
:1008200080008F7703C0809180008F7D809380004F
:1008300010C084B58F7702C084B58F7D84BD09C098
:100840008091B0008F7703C08091B0008F7D80933E
:10085000B000892F90E0880F991F84589F4FFC01AA
:10086000A591B4918C9120E030E0842311F021E037
:1008700030E0C901089508951F920F920FB60F92AC
:1008800011242F933F934F938F939F93EF93FF9355
:100890004091C60020916B0130916C012F5F3F4F5A
:1008A0002F73307080916D0190916E012817390778
:1008B00059F0E0916B01F0916C01E55DFE4F4083D2
:1008C00030936C0120936B01FF91EF919F918F9179
:1008D0004F913F912F910F900FBE0F901F90189541
:1008E000E091BF01F091C001E05CFF4F81919191D7
:1008F00020813181821B930B8F739070892B11F0B3
:100900000E943B0408951F920F920FB60F9211247C
:100910002F933F938F939F93EF93FF932091AF017A
:100920003091B0018091B1019091B201281739073F
:1009300031F48091C1008F7D8093C10014C0E0919B
:10094000B101F091B201E159FE4F20818091B101D6
:100950009091B20101968F7390709093B201809341
:10096000B1012093C600FF91EF919F918F913F912C
:100970002F910F900FBE0F901F901895AF92BF92BE
:10098000DF92EF92FF920F931F93CF93DF93EC01CF
:100990007A018B01DD24403081EE580780E0680742
:1009A00080E0780711F0DD24D39491E0A92EB12CDA
:1009B000EC89FD89DD2069F0C5010E8C02C0880F2D
:1009C000991F0A94E2F7808360E079E08DE390E07C
:1009D00005C0108260E874E88EE190E0A8019701FC
:1009E0000E94720621503040404050405695479535
:1009F0003795279580E12030380720F0DD2011F071
:100A0000DD24D6CFE889F9893083EA89FB89208300
:100A1000EE89FF89408121E030E0C9010A8C02C0E3
:100A2000880F991F0A94E2F7482B4083EE89FF89CB
:100A30004081C9010B8C02C0880F991F0A94E2F70C
:100A4000482B4083EE89FF894081C9010C8C02C08C
:100A5000880F991F0A94E2F7482B4083EE89FF899B
:100A600080810D8C02C0220F331F0A94E2F720957B
:100A700028232083DF91CF911F910F91FF90EF905A
:100A8000DF90BF90AF900895DC011C96ED91FC9132
:100A90001D97E05CFF4F2191319180819181281B4E
:100AA000390B2F733070C9010895DC011C96ED914C
:100AB000FC911D97E05CFF4F20813181E054F040B4
:100AC000DF01AE5BBF4F8D919C91119728173907BD
:100AD00019F42FEF3FEF07C08D919C91E80FF91F9C
:100AE0008081282F30E0C9010895DC011C96ED912A
:100AF000FC911D97E05CFF4F20813181E054F04074
:100B0000DF01AE5BBF4F8D919C911197281739077C
:100B100019F42FEF3FEF10C08D919C911197E80FC2
:100B2000F91F20818D919C91119701968F73907080
:100B300011969C938E9330E0C9010895FC0186853F
:100B40009785DC01A05CBF4FFC01EE5BFF4F2D9150
:100B50003C9111978081918128173907C1F7089539
:100B6000CF93DF93EC01EE85FF85E05CFF4F2081A2
:100B70003181E054F0402F5F3F4F2F733070DF0121
:100B8000AE5BBF4F8D919C91119728173907D1F318
:100B9000E05CFF4F80819181E054F040E80FF91F45
:100BA0006083EE85FF85E05CFF4F31832083EE8913
:100BB000FF89208181E090E00D8C02C0880F991F91
:100BC0000A94E2F7282B208381E090E0DF91CF9117
:100BD00008951092B6011092B50188EE93E0A0E05E
:100BE000B0E08093B7019093B801A093B901B0939E
:100BF000BA0185E091E09093B4018093B3018BE258
:100C000091E09093C0018093BF018FE691E09093B3
:100C1000C2018093C10185EC90E09093C401809360
:100C2000C30184EC90E09093C6018093C50180ECF1
:100C300090E09093C8018093C70181EC90E090937D
:100C4000CA018093C90186EC90E09093CC01809317
:100C5000CB0184E08093CD0183E08093CE0187E0D7
:100C60008093CF0185E08093D00181E08093D10112
:100C70000895CF93DF930E941A030E948C00C0E76F
:100C8000D4E00E948B022097E1F30E947004F9CF18
:100C9000CF92DF92EF92FF920F931F93CF93DF9348
:100CA0007C016B018A01C0E0D0E00FC0D6016D91DC
:100CB0006D01D701ED91FC910190F081E02DC7010C
:100CC0000995C80FD91F015010400115110571F782
:100CD000CE01DF91CF911F910F91FF90EF90DF90A8
:100CE000CF900895A1E21A2EAA1BBB1BFD010DC0D7
:100CF000AA1FBB1FEE1FFF1FA217B307E407F507CC
:100D000020F0A21BB30BE40BF50B661F771F881FA7
:100D1000991F1A9469F760957095809590959B013D
:100D2000AC01BD01CF010895EE0FFF1F0590F491B6
:080D3000E02D0994F894FFCFB7
:100D38000100000000B00548064405750555059EEC
:020D48000500A4
:00000001FF
